:100000000C9434000C9449000C9449000C94490061
:100010000C9449000C9449000C9449000C9449003C
:100020000C9449000C9449000C9449000C9449002C
:100030000C9449000C9449000C9449000C9449001C
:100040000C9449000C9449000C9449000C9449000C
:100050000C9449000C9449000C9449000C944900FC
:100060000C9449000C94490011241FBECFEFD8E036
:10007000DEBFCDBF11E0A0E0B1E0E8EFF1E002C0EB
:1000800005900D92A431B107D9F70E948C000C9411
:10009000FA000C940000FC019191992339F08091B1
:1000A000C00085FFFCCF9093C600F6CF0895CF9394
:1000B000DF93CDB7DEB764970FB6F894DEBF0FBEFF
:1000C000CDBF91E1E0E0F1E0DE01119601900D92EB
:1000D0009A95E1F7982F92959F70E1E0F0E0EC0F90
:1000E000FD1FE90FF11D90819A8B8F70E1E0F0E028
:1000F000EC0FFD1FE80FF11D80818B8B1C8ACE0158
:1001000042960E944B0064960FB6F894DEBF0FBE75
:10011000CDBFDF91CF910895CF93DF93CDB7DEB7F9
:100120002A970FB6F894DEBF0FBECDBF1092C50060
:1001300080E18093C40082E08093C00088E08093D7
:10014000C10086E08093C20000E010E080E2D82E7B
:10015000DE01119628E130E0CD01F801022E02C047
:10016000F695E7950A94E2F7EF70FF27E050FF4F0E
:1001700040814D9324503109283F4FEF340769F7F0
:1001800018860E944B00780180E1E80EF11C0115F1
:1001900044E01407D8F48091C00085FFFCCFD092D2
:1001A000C600C8010E94F200B82EC80101960E9444
:1001B000F200C82E0E5F1F4F8B2D0E9457008C2D12
:1001C0000E945700E016F10611F701C0780181E1A5
:1001D00091E00E944B00E11484E0F80610F48701DE
:1001E000B7CFFFCFF999FECF92BD81BDF89A99277D
:0801F00080B50895F894FFCFDB
:1001F8003031323334353637383941424344454655
:04020800000D0A00DB
:00000001FF
