:100000000C9434000C943E000C943E000C943E0082
:100010000C943E000C943E000C943E000C943E0068
:100020000C943E000C943E000C943E000C943E0058
:100030000C943E000C943E000C943E000C943E0048
:100040000C943E000C943E000C943E000C943E0038
:100050000C943E000C943E000C943E000C943E0028
:100060000C943E000C943E0011241FBECFEFD8E04C
:10007000DEBFCDBF0E9440000C9491000C940000A4
:100080008AB188668AB960E250E448E030E628E444
:1000900098E288E66BB97FEFE3EDF0E37150E04062
:1000A000F040E1F700C000005BB97FEFE3EDF0E363
:1000B0007150E040F040E1F700C000004BB97FEF25
:1000C000E3EDF0E37150E040F040E1F700C00000E4
:1000D0003BB97FEFE3EDF0E37150E040F040E1F732
:1000E00000C000002BB97FEFE3EDF0E37150E0407A
:1000F000F040E1F700C000009BB97FEFE3EDF0E3D3
:100100007150E040F040E1F700C000008BB97FEF94
:10011000E3EDF0E37150E040F040E1F700C0000093
:06012000B9CFF894FFCFF7
:00000001FF
