:100000000C94B1000C94CE000C94CE000C94CE0055
:100010000C94CE000C94CE000C94CE000C94CE0028
:100020000C94CE000C94CE000C94CE000C94CE0018
:100030000C94CE000C94CE000C94CE000C94CE0008
:100040000C94CE000C94CE000C94CE000C94CE00F8
:100050000C94CE000C94CE000C94CE000C94CE00E8
:100060000C94CE000C94CE0000407A10F35A00A0FD
:10007000724E18090010A5D4E80000E87648170071
:1000800000E40B54020000CA9A3B000000E1F505B1
:10009000000080969800000040420F000000A086FB
:1000A00001000000102700000000E803000000002D
:1000B0006400000000000A000000000001000000D1
:1000C00000002C76D888DC674F0823DFC1DFAE59EB
:1000D000E1B1B796E5E3E453C63AE651997696E87E
:1000E000E6C28426EB898C9B62ED407C6FFCEFBC02
:1000F0009C9F40F2BAA56FA5F490055A2AF75C932D
:100100006B6CF9676DC11BFCE0E40D47FEF520E662
:10011000B500D0ED902E0300943577050080841E45
:10012000080000204E0A000000C80C333333330FA0
:10013000986E12831141EF8D2114893BE65516CF3D
:10014000FEE6DB18D1844B381BF77C1D901DA4BB49
:10015000E424203284725E228100C9F124ECA1E5FE
:100160003D2711241FBECFEFD8E0DEBFCDBF11E089
:10017000A0E0B1E0EEE9FDE002C005900D92A033F1
:10018000B107D9F721E0A0E3B1E001C01D92A1338E
:10019000B207E1F70E94EA000C94CD060C9400002F
:1001A000FC019191992339F08091C00085FFFCCF2B
:1001B0009093C600F6CF08958093BB0084E88093A7
:1001C000BC008091BC0087FFFCCF089584E9809338
:1001D000BC000895CF93DF93CDB7DEB76B970FB612
:1001E000F894DEBF0FBECDBF1092C50080E18093B2
:1001F000C40082E08093C00088E08093C10086E064
:100200008093C2001092B90088E48093B80084E023
:100210008093BC0081E091E00E94D0001C8A1D8A7E
:100220001E8A1F8A188E198E1A8E1B8E912CB12C45
:10023000D12CF12C212C312C00E010E0CE01419684
:100240009B8B8A8B94EA9093BC008091BC0087FFC3
:10025000FCCF80E70E94DC008CEA0E94DC0083E394
:100260000E94DC0080E00E94DC0024E92093BC00B6
:100270008FEF97EE23E0815090402040E1F700C0DF
:10028000000084EA8093BC008091BC0087FFFCCF13
:1002900081E70E94DC00FE013B9694EC9093BC0049
:1002A0008091BC0087FFFCCF8091BB0081938A893D
:1002B0009B89E817F90789F794E89093BC0080912F
:1002C000BC0087FFFCCF8091BB0024E92093BC00D9
:1002D0007E844C8550E060E070E08CE0440F551F58
:1002E000661F771F8A95D1F78D8590E0A0E0B0E07A
:1002F00024E0880F991FAA1FBB1F2A95D1F7842BD2
:10030000952BA62BB72B272D22952F70BC01CD0145
:10031000622B0E94250320E030E040E855E30E9474
:10032000D70320E030E048EC52E40E94D703862E49
:10033000A72EC82EE92E6F8578897627672776271E
:10034000CB01A0E0B0E0272D2F70BC01CD01822BA6
:100350000E94250320E030E040E855E30E94D703E7
:1003600020E030E048E453E40E94D70320E030E08E
:1003700048E452E40E9441022B013C0120E030E0BD
:10038000A901B101C8010E94AE02882309F45BC033
:1003900020E030E0A901692D7B2D8D2D9F2D0E943D
:1003A000AE02882309F44FC09101A801692D7B2D6D
:1003B0008D2D9F2D0E944202282D3A2D4C2D5E2D11
:1003C0000E94420220E030E040E450E40E94B30288
:1003D000862EA72EC82EE92E288D398D4A8D5B8D4D
:1003E0006C897D898E899F890E9442029201A301B6
:1003F0000E94420220E030E040E450E40E94B30258
:100400002B013C018EE091E00E94D0008E010F5F35
:100410001F4F21E042E0B201C3010E9444040E9448
:10042000D0008CE191E00E94D00021E042E0682DF4
:100430007A2D8C2D9E2D0E9444040E94D0008BE2C8
:1004400091E00E94D0008FEF97EA21E68150904022
:100450002040E1F700C000008C89888F9D89998F2A
:100460002E892A8F8F898B8F4C8A5D8A6E8A7F8A2C
:10047000292C3B2C0D2D1F2D982CBA2CDC2CFE2C5E
:10048000E1CE5058BB27AA270E9459020C949D0325
:100490000E948F0338F00E94960320F039F49F3FAA
:1004A00019F426F40C948C030EF4E095E7FB0C94FD
:1004B0008603E92F0E94AE0358F3BA176207730749
:1004C0008407950720F079F4A6F50C94D0030EF478
:1004D000E0950B2EBA2FA02D0B01B90190010C0154
:1004E000CA01A0011124FF27591B99F0593F50F46C
:1004F000503E68F11A16F040A22F232F342F4427C4
:10050000585FF3CF469537952795A795F0405395BB
:10051000C9F77EF41F16BA0B620B730B840BBAF08B
:100520009150A1F0FF0FBB1F661F771F881FC2F7F6
:100530000EC0BA0F621F731F841F48F4879577950A
:100540006795B795F7959E3F08F0B0CF9395880FC4
:1005500008F09927EE0F9795879508950E946203FA
:1005600008F481E008950E94C7020C949D030E9444
:10057000960358F00E948F0340F029F45F3F29F062
:100580000C94860351110C94D1030C948C030E949B
:10059000AE0368F39923B1F3552391F3951B550BE3
:1005A000BB27AA2762177307840738F09F5F5F4F46
:1005B000220F331F441FAA1FA9F335D00E2E3AF085
:1005C000E0E832D091505040E695001CCAF72BD09D
:1005D000FE2F29D0660F771F881FBB1F26173707EE
:1005E0004807AB07B0E809F0BB0B802DBF01FF2720
:1005F00093585F4F3AF09E3F510578F00C94860374
:100600000C94D1035F3FE4F3983ED4F3869577953D
:100610006795B795F7959F5FC9F7880F911D9695D8
:10062000879597F90895E1E0660F771F881FBB1F34
:10063000621773078407BA0720F0621B730B840BE1
:10064000BA0BEE1F88F7E0950895E89409C097FB70
:100650003EF490958095709561957F4F8F4F9F4F99
:100660009923A9F0F92F96E9BB279395F6958795DD
:1006700077956795B795F111F8CFFAF4BB0F11F4A0
:1006800060FF1BC06F5F7F4F8F4F9F4F16C0882347
:1006900011F096E911C0772321F09EE8872F762F7D
:1006A00005C0662371F096E8862F70E060E02AF0BE
:1006B0009A95660F771F881FDAF7880F96958795AA
:1006C00097F90895990F0008550FAA0BE0E8FEEF7F
:1006D00016161706E807F907C0F012161306E40706
:1006E000F50798F0621B730B840B950B39F40A26FF
:1006F00061F0232B242B252B21F408950A2609F4DD
:10070000A140A6958FEF811D811D089597F99F67E0
:1007100080E870E060E008959FEF80EC0895002489
:100720000A941616170618060906089500240A9456
:1007300012161306140605060895092E0394000CDC
:1007400011F4882352F0BB0F40F4BF2B11F460FF6B
:1007500004C06F5F7F4F8F4F9F4F089557FD905894
:10076000440F551F59F05F3F71F04795880F97FB75
:10077000991F61F09F3F79F087950895121613062F
:100780001406551FF2CF4695F1DF08C0161617065E
:100790001806991FF1CF8695710561050894089593
:1007A000E894BB2766277727CB0197F908950E9425
:1007B000EA030C949D030E948F0338F00E94960375
:1007C00020F0952311F00C9486030C948C031124D3
:1007D0000C94D1030E94AE0370F3959FC1F3950F63
:1007E00050E0551F629FF001729FBB27F00DB11DB5
:1007F000639FAA27F00DB11DAA1F649F6627B00D45
:10080000A11D661F829F2227B00DA11D621F739F2D
:10081000B00DA11D621F839FA00D611D221F749F3B
:100820003327A00D611D231F849F600D211D822F82
:10083000762F6A2F11249F5750409AF0F1F08823A9
:100840004AF0EE0FFF1FBB1F661F771F881F9150D6
:100850005040A9F79E3F510580F00C9486030C94FC
:10086000D1035F3FE4F3983ED4F38695779567957F
:10087000B795F795E7959F5FC1F7FE2B880F911D00
:100880009695879597F90895EF920F931F93CF93BD
:10089000DF93E80147FD02C034E001C034E1042EDB
:1008A000000C550B57FF03C0519541955109E32E9C
:1008B000022F242FAE010E946404CE01DF91CF915C
:1008C0001F910F91EF900895A9E0B0E0EAE6F4E0FF
:1008D0000C949C066A01122FB02E2BE3201720F0F7
:1008E000FF24F394F00E02C02CE3F22E0F2D27E02C
:1008F000AE014F5F5F4F0E94BE05BC014981842F4E
:100900008970813031F0E1FC06C0E0FE06C090E263
:1009100005C09DE203C09BE201C090E05E2D5071D6
:1009200043FF3CC0911102C083E001C084E0811705
:1009300018F4212F281B01C020E051110BC0F60133
:10094000822F30E2882319F031938150FBCFC20E01
:10095000D11C20E0992329F0D6019C93F601319611
:100960006F01C6010396E2FE0AC03EE4D6013C9345
:1009700041E411964C93119712963C9306C03EE6C3
:10098000F601308341E641833283FC01322F40E29D
:10099000332309F442C041933150FACF42FF44C09F
:1009A000911102C083E001C084E0811718F4212F67
:1009B000281B01C020E051110BC0F601822F30E24C
:1009C000882319F031938150FBCFC20ED11C20E057
:1009D000992329F0D6019C93F60131966F01C60147
:1009E0000396E2FE0BC039E4D6013C933EE4119637
:1009F0003C93119736E412963C9307C039E6F60112
:100A000030833EE6318336E63283FC01322F40E20A
:100A1000332319F041933150FBCFFC01E20FF11D5C
:100A200010828EEF9FEFA6C021E030E0911102C04E
:100A300020E030E0161617061CF4FB01319602C0C8
:100A4000E1E0F0E02E0F3F1FBB2021F0EB2DF0E0A6
:100A5000319602C0E0E0F0E02E0F3F1FE12FF0E002
:100A60002E173F071CF4121B212F01C020E08E2DF2
:100A7000887159F4F601822F30E2882319F03193FE
:100A80008150FBCFC20ED11C20E0992329F0D60162
:100A90009C93F60131966F0151110BC0F601822F24
:100AA00090E3882319F091938150FBCFC20ED11CA3
:100AB00020E00F2D060F9A81342F307144FF03C0C0
:100AC000913309F40150101624F4093018F008E0AD
:100AD00001C001E0AB0177FF02C040E050E0FB0144
:100AE000E41BF50BA1E0B0E0AC0FBD1FEA0FFB1F4C
:100AF0008EE2A82E4B01801A91080B2D10E0119563
:100B0000019511094F3FBFEF5B0721F4D601AC926D
:100B100011966D01641775072CF08416950614F470
:100B2000818101C080E3415051093196D60111966F
:100B30007D014017510724F0D6018C936701E2CF65
:100B40006417750739F4963320F4953319F431118D
:100B500001C081E3F6018083F701822F90E28823B0
:100B600019F091938150FBCFF701E20FF11D108234
:100B700080E090E02996ECE00C94B806283008F06C
:100B800027E03327DA01990F311D87FD9160009628
:100B90006105710539F432602E5F3D9330E32A958B
:100BA000E1F708959F3F30F080387105610509F045
:100BB0003C5F3C5F3D93913008F08068911DDF936E
:100BC000CF931F930F93FF92EF92192F987F9695D3
:100BD000E92F96959695E90FFF27EE53FF4F99273A
:100BE0003327EE24FF24A701E7010590089407941A
:100BF00028F4360FE71EF81E491F511D660F771F98
:100C0000881F991F0694A1F70590079428F4E70E12
:100C1000F81E491F561FC11D770F881F991F661F99
:100C20000694A1F70590079428F4F80E491F561F63
:100C3000C71FD11D880F991F661F771F0694A1F744
:100C40000590079420F4490F561FC71FD81F990F0E
:100C5000661F771F881F0694A9F784911095177057
:100C600041F0D695C79557954795F794E7941A950F
:100C7000C1F7E8E6F0E0689415901591359165911B
:100C8000959105907FE27395E118F10A430B560B9D
:100C9000C90BD009C0F7E10CF11E431F561FC91F35
:100CA000D01D7EF4703311F48A95E6CFE89401509C
:100CB00030F0080F0AF40027021708F4202F2395BC
:100CC000022F7A3328F079E37D932A95E9F710C053
:100CD0007D932A9589F6069497956795379517958C
:100CE0001794E118F10A430B560BC90BD00998F081
:100CF00023957E9173957A3308F070E37C932013EB
:100D0000B8F77E9170617D9330F0839571E37D93A8
:100D100070E32A95E1F71124EF90FF900F911F9156
:100D2000CF91DF91992787FD909508952F923F925B
:100D30004F925F926F927F928F929F92AF92BF92EB
:100D4000CF92DF92EF92FF920F931F93CF93DF9397
:100D5000CDB7DEB7CA1BDB0B0FB6F894DEBF0FBEF4
:100D6000CDBF09942A88398848885F846E847D8441
:100D70008C849B84AA84B984C884DF80EE80FD8043
:100D80000C811B81AA81B981CE0FD11D0FB6F894B9
:0E0D9000DEBF0FBECDBFED010895F894FFCF7A
:100D9E00AC57616974696E672E2E2E0D0A0054656C
:100DAE006D70657261747572653A200020432C2057
:100DBE0048756D69646974793A200020250D0A0022
:00000001FF
