:100000000C9434000C9449000C9449000C94490061
:100010000C9449000C9449000C9449000C9449003C
:100020000C9449000C9449000C9449000C9449002C
:100030000C9449000C9449000C9449000C9449001C
:100040000C9449000C9449000C9449000C9449000C
:100050000C9449000C9449000C9449000C944900FC
:100060000C9449000C94490011241FBECFEFD8E036
:10007000DEBFCDBF11E0A0E0B1E0E0E1F1E002C001
:1000800005900D92A430B107D9F70E945C000C9442
:1000900086000C940000559A569A539A5D985E9883
:1000A0005B9808955D985E985B9885FD5D9A86FDE6
:1000B0005E9A83FD5B9A0895CF93DF9300D01F92E1
:1000C000CDB7DEB78091000190910101A0910201AE
:1000D00089839A83AB830E944B007E0124E0E20E69
:1000E000F11C8E010F5F1F4FF80181918F010E945B
:1000F0005200FFEF23ED80E3F15020408040E1F714
:1001000000C000000E151F0579F7EBCFF894FFCF64
:0401100005060300DD
:00000001FF
