:100000000C9434000C943E000C943E000C943E0082
:100010000C943E000C943E000C943E000C943E0068
:100020000C943E000C943E000C943E000C943E0058
:100030000C943E000C943E000C943E000C943E0048
:100040000C943E000C943E000C943E000C943E0038
:100050000C943E000C943E000C943E000C943E0028
:100060000C943E000C943E0011241FBECFEFD8E04C
:10007000DEBFCDBF0E944B000C947B000C940000AF
:1000800084B18C6284B983E58CBD08958EBD0DB4B6
:1000900007FEFDCF08950E94400080E00E944600C8
:1000A00080E00E94460080E00E94460080E00E94BE
:1000B00046008FEF0E94460080E00E94460080E0EC
:1000C0000E9446008FEF0E9446008FEF0E9446007C
:1000D0008FEF0E9446008FEF0E9446008FEF0E9434
:1000E00046002FEF83ED90E3215080409040E1F7F0
:0A00F00000C00000D2CFF894FFCF4B
:00000001FF
