:100000000C9434000C9449000C9449000C94490061
:100010000C9449000C9449000C9449000C9449003C
:100020000C9449000C9449000C9449000C9449002C
:100030000C9449000C9449000C9449000C9449001C
:100040000C9449000C9449000C9449000C9449000C
:100050000C9449000C9449000C9449000C944900FC
:100060000C9449000C94490011241FBECFEFD8E036
:10007000DEBFCDBF11E0A0E0B1E0E8E4F4E002C0F3
:1000800005900D92A837B107D9F70E9495010C94FD
:1000900022020C9400009091C00095FFFCCF809349
:1000A000C6000895CF93DF93EC018991882319F05E
:1000B0000E944B00FACFDF91CF910895CF93DF9349
:1000C000CDB7DEB764970FB6F894DEBF0FBECDBFD5
:1000D00091E1E0E0F1E0DE01119601900D929A9538
:1000E000E1F7982F92959F70E1E0F0E0EC0FFD1F93
:1000F000E90FF11D90819A8B8F70E1E0F0E0EC0F39
:10010000FD1FE80FF11D80818B8B1C8ACE0142966A
:100110000E94520064960FB6F894DEBF0FBECDBFAA
:10012000DF91CF910895FC01BC01685F7F4F80E0B3
:1001300090E024E0880F991F2A95E1F7219140ED86
:10014000420F4A3038F04FEB420F463020F439EC82
:10015000320F01C0342F832B6E177F0751F708959C
:10016000FC0139969C01255F3F4F80E040E1849F70
:10017000C0011124419160ED640F6A3038F06FEBDB
:10018000640F663020F459EC540F01C0562F852BB4
:100190002E173F0759F708958F929F92AF92BF9203
:1001A000CF92DF92EF92FF920F931F93CF93DF9343
:1001B0007C01C0E0D0E008E110E0FE01002E02C0AA
:1001C000F695E7950A94E2F7EF70FF27E050FF4FAE
:1001D00080810E944B00045011090C3F8FEF1807DB
:1001E00061F78E010F5F1F4F5E0180E1A80EB11C09
:1001F000C11584E0D807B8F580E20E944B00CE011B
:100200000E940C02882E6E0182E0C80ED11CC8012B
:100210000E940C02982ECE15DF0521F481E191E0B9
:100220000E945200882D0E945E00CE15DF0521F449
:1002300087E191E00E945200E016F10621F481E18D
:1002400091E00E945200892D0E945E00E016F106A6
:1002500021F487E191E00E9452000E5F1F4FE601FA
:10026000CA14DB0429F68CE591E00E945200C11506
:1002700084E0D80708F49FCFDF91CF911F910F91B1
:10028000FF90EF90DF90CF90BF90AF909F908F90B6
:100290000895EF92FF920F931F93CF93DF937A010C
:1002A000FC0120E030E02830310531F4DC01189603
:1002B0004C91403271F508C0508140ED450F4A30F5
:1002C00018F05154563028F52F5F3F4F31962B30A0
:1002D000310549F78B01EC010E949300F8019183ED
:1002E0008083CE010E94B000C82FD7018C93F80103
:1002F000808191818115F4E09F0718F08CE191E0F5
:1003000006C00E940C02C81307C08DE291E00E9453
:10031000520080E090E002C081E090E0DF91CF9158
:100320001F910F91FF90EF900895CF93DF93CDB77A
:10033000DEB72E970FB6F894DEBF0FBECDBF10927A
:10034000C50080E18093C40082E08093C00088E112
:100350008093C10086E08093C20081E691E00E9414
:10036000520000E010E08091C00087FFFCCFE090D9
:10037000C6000E2C000CFF08C701815691094A9750
:1003800018F480E2E81AF1088E2D8F3711F08830CA
:1003900051F40115110539F30150110986E491E07A
:1003A0000E945200E0CF8D3011F08A3021F58CE5AB
:1003B00091E00E9452000B30110529F08AE491E08F
:1003C0000E94520015C0AE01425F5F4FBE01645FE4
:1003D0007F4FCE0101960E944901892B49F06E851D
:1003E0008C859D850E9414028C859D850E94CC0081
:1003F0008FE591E0B4CF0B3011050CF0B4CF8E2D0A
:100400000E944B00E1E0F0E0EC0FFD1FE00FF11F58
:10041000E0820F5F1F4FA7CFF999FECF92BD81BD3C
:10042000F89A992780B50895262FF999FECF1FBA1B
:1004300092BD81BD20BD0FB6F894FA9AF99A0FBE0D
:0804400001960895F894FFCF26
:100448003031323334353637383941424344454602
:10045800001B5B33316D001B5B306D0041646472BF
:1004680065737320746F206269670D0A0053616DAC
:1004780065206279746520616C72656164792068B1
:100488006572650D0A0008200800496E70757420B1
:10049800696E636F6D706C65746520210D0A000DBF
:1004A8000A456E74657220616472657373202B202F
:0804B80062797465203A20000E
:00000001FF
