:100000000C9434000C9448000C9446000C94460068
:100010000C9446000C9446000C9446000C94460048
:100020000C9446000C9446000C9446000C94460038
:100030000C9446000C9446000C9446000C94460028
:100040000C9446000C9446000C9446000C94460018
:100050000C9446000C9446000C9446000C94460008
:100060000C9446000C94460011241FBECFEFD8E03C
:10007000DEBFCDBF21E0A0E0B1E001C01D92A13004
:10008000B207E1F70E9484000C948F000C940000EA
:100090001F920F920FB60F9211242F938F939F935D
:1000A000E8982FEF89EF90E0215080409040E1F7F1
:1000B00000C000008091690080FF0CC01092000118
:1000C000809169008E7F8093690095B181E08927D6
:1000D00085B908C081E0809300018091690081604A
:1000E000809369002FEF89EF90E02150804090408D
:1000F000E1F700C00000E89A9F918F912F910F9037
:100100000FBE0F901F901895209A52985A9AF89403
:1001100082E08093690081E08DBB7894FFCFF894F2
:02012000FFCF0F
:00000001FF
