:100000000C9434000C9451000C9451000C94510049
:100010000C9451000C9451000C9451000C9451001C
:100020000C9451000C9451000C9451000C9451000C
:100030000C9451000C9451000C9453000C945100FA
:100040000C9451000C9451000C9451000C945100EC
:100050000C9451000C9451000C9451000C945100DC
:100060000C9451000C94510011241FBECFEFD8E026
:10007000DEBFCDBF11E0A0E0B1E0EAE8F1E002C0F0
:1000800005900D92A230B107D9F721E0A2E0B1E0CE
:1000900001C01D92A330B207E1F70E9490000C94BA
:1000A000C3000C9400001F920F9200905F000F920B
:1000B00011242F933F938F939F93EF93FF93CF93AD
:1000C000DF93CDB7DEB780910001982F80910201B8
:1000D000890F80930201809102018F3F21F080916E
:1000E0000201882329F48091000181958093000109
:1000F00088E890E020910201222F30E0FC0131835A
:1001000020830000DF91CF91FF91EF919F918F911C
:100110003F912F910F9000925F000F901F901895C4
:10012000CF93DF93CDB7DEB784E290E024E230E0F6
:10013000F90120812260FC012083F89480E890E09E
:1001400021E8FC01208381E890E029E0FC01208384
:1001500088E890E0FC011182108284E490E022E0C3
:10016000FC01208385E490E024E0FC01208387E407
:1001700090E02CE7FC0120838EE690E022E0FC0179
:0A01800020837894FFCFF894FFCF9E
:02018A00010072
:00000001FF
